{
  "address": "0x72A29697A3A6B1728dA086b2F4E7717D0B4971Ea",
  "abi": [
    {
      "inputs": [
        {
          "internalType": "address",
          "name": "exampleExternalContractAddress",
          "type": "address"
        }
      ],
      "stateMutability": "nonpayable",
      "type": "constructor"
    },
    {
      "anonymous": false,
      "inputs": [
        {
          "indexed": true,
          "internalType": "address",
          "name": "executor",
          "type": "address"
        },
        {
          "indexed": false,
          "internalType": "uint256",
          "name": "contractBalance",
          "type": "uint256"
        },
        {
          "indexed": false,
          "internalType": "bool",
          "name": "success",
          "type": "bool"
        }
      ],
      "name": "Execute",
      "type": "event"
    },
    {
      "anonymous": false,
      "inputs": [
        {
          "indexed": true,
          "internalType": "address",
          "name": "staker",
          "type": "address"
        },
        {
          "indexed": false,
          "internalType": "uint256",
          "name": "amount",
          "type": "uint256"
        }
      ],
      "name": "Stake",
      "type": "event"
    },
    {
      "anonymous": false,
      "inputs": [
        {
          "indexed": true,
          "internalType": "address",
          "name": "staker",
          "type": "address"
        },
        {
          "indexed": false,
          "internalType": "uint256",
          "name": "amount",
          "type": "uint256"
        }
      ],
      "name": "Withdraw",
      "type": "event"
    },
    {
      "stateMutability": "payable",
      "type": "fallback"
    },
    {
      "inputs": [
        {
          "internalType": "address",
          "name": "",
          "type": "address"
        }
      ],
      "name": "balances",
      "outputs": [
        {
          "internalType": "uint256",
          "name": "",
          "type": "uint256"
        }
      ],
      "stateMutability": "view",
      "type": "function"
    },
    {
      "inputs": [],
      "name": "deadline",
      "outputs": [
        {
          "internalType": "uint256",
          "name": "",
          "type": "uint256"
        }
      ],
      "stateMutability": "view",
      "type": "function"
    },
    {
      "inputs": [],
      "name": "exampleExternalContract",
      "outputs": [
        {
          "internalType": "contract IExampleExternalContract",
          "name": "",
          "type": "address"
        }
      ],
      "stateMutability": "view",
      "type": "function"
    },
    {
      "inputs": [],
      "name": "execute",
      "outputs": [],
      "stateMutability": "nonpayable",
      "type": "function"
    },
    {
      "inputs": [],
      "name": "openForWithdraw",
      "outputs": [
        {
          "internalType": "bool",
          "name": "",
          "type": "bool"
        }
      ],
      "stateMutability": "view",
      "type": "function"
    },
    {
      "inputs": [],
      "name": "stake",
      "outputs": [],
      "stateMutability": "payable",
      "type": "function"
    },
    {
      "inputs": [
        {
          "internalType": "address",
          "name": "",
          "type": "address"
        }
      ],
      "name": "stakedBalances",
      "outputs": [
        {
          "internalType": "uint256",
          "name": "",
          "type": "uint256"
        }
      ],
      "stateMutability": "view",
      "type": "function"
    },
    {
      "inputs": [],
      "name": "threshold",
      "outputs": [
        {
          "internalType": "uint256",
          "name": "",
          "type": "uint256"
        }
      ],
      "stateMutability": "view",
      "type": "function"
    },
    {
      "inputs": [],
      "name": "timeLeft",
      "outputs": [
        {
          "internalType": "uint256",
          "name": "",
          "type": "uint256"
        }
      ],
      "stateMutability": "view",
      "type": "function"
    },
    {
      "inputs": [],
      "name": "withdraw",
      "outputs": [],
      "stateMutability": "nonpayable",
      "type": "function"
    },
    {
      "stateMutability": "payable",
      "type": "receive"
    }
  ],
  "transactionHash": "0x87c338069c2932b98932829b3985c99ea95ef1bad62486e7b22b6673bcdb5265",
  "args": [
    "0x9d540e3Aa470471853D2c91c7F1e1D4446701596"
  ],
  "numDeployments": 1,
  "solcInputHash": "41911844f1a3a70947ca6746aff6103d",
  "bytecode": "0x6080604052610011426203f480610075565b60025534801561002057600080fd5b506040516107ba3803806107ba83398101604081905261003f9161009c565b60038054610100600160a81b0319166101006001600160a01b0384160217905561006c426203f480610075565b600255506100cc565b8082018082111561009657634e487b7160e01b600052601160045260246000fd5b92915050565b6000602082840312156100ae57600080fd5b81516001600160a01b03811681146100c557600080fd5b9392505050565b6106df806100db6000396000f3fe6080604052600436106100955760003560e01c80633ccfd60b116100595780633ccfd60b1461019057806342cde4e8146101a557806361461954146101c15780639876a643146101d65780639f75f22714610200576100c1565b80631300a6d1146100f05780631460fa871461011857806327e235e31461014557806329dcb0cf146101725780633a4b66f114610188576100c1565b366100c15733600090815260208190526040812080543492906100b990849061064d565b925050819055005b33600090815260208190526040812080543492906100e090849061064d565b909155506100ee905061023d565b005b3480156100fc57600080fd5b50610105610309565b6040519081526020015b60405180910390f35b34801561012457600080fd5b50610105610133366004610666565b60016020526000908152604090205481565b34801561015157600080fd5b50610105610160366004610666565b60006020819052908152604090205481565b34801561017e57600080fd5b5061010560025481565b6100ee61023d565b34801561019c57600080fd5b506100ee61032d565b3480156101b157600080fd5b50610105670de0b6b3a764000081565b3480156101cd57600080fd5b506100ee610485565b3480156101e257600080fd5b506003546101f09060ff1681565b604051901515815260200161010f565b34801561020c57600080fd5b506003546102259061010090046001600160a01b031681565b6040516001600160a01b03909116815260200161010f565b6000341161028a5760405162461bcd60e51b815260206004820152601560248201527443616e6e6f74207374616b65203020746f6b656e7360581b60448201526064015b60405180910390fd5b33600090815260208190526040812080543492906102a990849061064d565b909155505033600090815260016020526040812080543492906102cd90849061064d565b909155505060405134815233907febedb8b3c678666e7f36970bc8f57abf6d8fa2e828c0da91ea5b75bf68ed101a9060200160405180910390a2565b6000600254421061031a5750600090565b426002546103289190610696565b905090565b33600090815260016020526040902054806103965760405162461bcd60e51b8152602060048201526024808201527f43616e6e6f742077697468647261772066726f6d206e6f6e207374616b6572206044820152633ab9b2b960e11b6064820152608401610281565b50336000908152602081905260408120805482919082906103b890829061064d565b9091555050604051600090339083908381818185875af1925050503d80600081146103ff576040519150601f19603f3d011682016040523d82523d6000602084013e610404565b606091505b505090508061044c5760405162461bcd60e51b81526020600482015260146024820152732330b4b632b2103a379039b2b7321022ba3432b960611b6044820152606401610281565b60405182815233907f884edad9ce6fa2440d8a54cc123490eb96d2768479d49ff9c7366125a94243649060200160405180910390a25050565b60035460ff16156104e75760405162461bcd60e51b815260206004820152602660248201527f5374616b696e6720616c726561647920636f6d706c65746564206f722077697460448201526534323930bbb760d11b6064820152608401610281565b6002544210156105395760405162461bcd60e51b815260206004820152601e60248201527f5374616b696e6720706572696f64206973207374696c6c2061637469766500006044820152606401610281565b47670de0b6b3a764000081106105f257600360019054906101000a90046001600160a01b03166001600160a01b031663522e1177826040518263ffffffff1660e01b81526004016000604051808303818588803b15801561059957600080fd5b505af11580156105ad573d6000803e3d6000fd5b505060408051858152600160208201523394507f60795497824431045f838e8b090ee0da653f6aaf758ae6c817ca5cf6c25dcb5f93500190505b60405180910390a250565b6003805460ff19166001179055604080518281526000602082015233917f60795497824431045f838e8b090ee0da653f6aaf758ae6c817ca5cf6c25dcb5f91016105e7565b634e487b7160e01b600052601160045260246000fd5b8082018082111561066057610660610637565b92915050565b60006020828403121561067857600080fd5b81356001600160a01b038116811461068f57600080fd5b9392505050565b818103818111156106605761066061063756fea264697066735822122041816bddbc20bbe24e752f981aeb9c2a1193846bb992e3a6e024f5f025f8c1a664736f6c63430008140033",
  "devdoc": {
    "kind": "dev",
    "methods": {},
    "version": 1
  },
  "userdoc": {
    "kind": "user",
    "methods": {
      "threshold()": {
        "notice": "tracks individual staked balances"
      }
    },
    "version": 1
  },
  "storageLayout": {
    "storage": [
      {
        "astId": 10,
        "contract": "contracts/Staker.sol:Staker",
        "label": "balances",
        "offset": 0,
        "slot": "0",
        "type": "t_mapping(t_address,t_uint256)"
      },
      {
        "astId": 14,
        "contract": "contracts/Staker.sol:Staker",
        "label": "stakedBalances",
        "offset": 0,
        "slot": "1",
        "type": "t_mapping(t_address,t_uint256)"
      },
      {
        "astId": 24,
        "contract": "contracts/Staker.sol:Staker",
        "label": "deadline",
        "offset": 0,
        "slot": "2",
        "type": "t_uint256"
      },
      {
        "astId": 26,
        "contract": "contracts/Staker.sol:Staker",
        "label": "openForWithdraw",
        "offset": 0,
        "slot": "3",
        "type": "t_bool"
      },
      {
        "astId": 29,
        "contract": "contracts/Staker.sol:Staker",
        "label": "exampleExternalContract",
        "offset": 1,
        "slot": "3",
        "type": "t_contract(IExampleExternalContract)6"
      }
    ],
    "types": {
      "t_address": {
        "encoding": "inplace",
        "label": "address",
        "numberOfBytes": "20"
      },
      "t_bool": {
        "encoding": "inplace",
        "label": "bool",
        "numberOfBytes": "1"
      },
      "t_contract(IExampleExternalContract)6": {
        "encoding": "inplace",
        "label": "contract IExampleExternalContract",
        "numberOfBytes": "20"
      },
      "t_mapping(t_address,t_uint256)": {
        "encoding": "mapping",
        "key": "t_address",
        "label": "mapping(address => uint256)",
        "numberOfBytes": "32",
        "value": "t_uint256"
      },
      "t_uint256": {
        "encoding": "inplace",
        "label": "uint256",
        "numberOfBytes": "32"
      }
    }
  }
}